{
  "contractName": "Proof",
  "abi": [
    {
      "anonymous": false,
      "inputs": [
        {
          "indexed": false,
          "internalType": "bool",
          "name": "status",
          "type": "bool"
        },
        {
          "indexed": false,
          "internalType": "uint256",
          "name": "timestamp",
          "type": "uint256"
        },
        {
          "indexed": false,
          "internalType": "string",
          "name": "owner",
          "type": "string"
        },
        {
          "indexed": false,
          "internalType": "string",
          "name": "fileHash",
          "type": "string"
        }
      ],
      "name": "logFileAddedStatus",
      "type": "event"
    },
    {
      "inputs": [
        {
          "internalType": "string",
          "name": "owner",
          "type": "string"
        },
        {
          "internalType": "string",
          "name": "fileHash",
          "type": "string"
        }
      ],
      "name": "set",
      "outputs": [],
      "stateMutability": "nonpayable",
      "type": "function"
    },
    {
      "inputs": [
        {
          "internalType": "string",
          "name": "fileHash",
          "type": "string"
        }
      ],
      "name": "get",
      "outputs": [
        {
          "internalType": "uint256",
          "name": "timestamp",
          "type": "uint256"
        },
        {
          "internalType": "string",
          "name": "owner",
          "type": "string"
        }
      ],
      "stateMutability": "view",
      "type": "function"
    }
  ],
  "bytecode": "0x608060405234801561001057600080fd5b50610929806100206000396000f3fe608060405234801561001057600080fd5b50600436106100365760003560e01c8063693ec85e1461003b578063e942b5161461006c575b600080fd5b610055600480360381019061005091906103c2565b610088565b6040516100639291906104ac565b60405180910390f35b610086600480360381019061008191906104dc565b610164565b005b6000606060008360405161009c9190610590565b9081526020016040518091039020600001546000846040516100be9190610590565b90815260200160405180910390206001018080546100db906105d6565b80601f0160208091040260200160405190810160405280929190818152602001828054610107906105d6565b80156101545780601f1061012957610100808354040283529160200191610154565b820191906000526020600020905b81548152906001019060200180831161013757829003601f168201915b5050505050905091509150915091565b600080826040516101759190610590565b90815260200160405180910390206000015403610225576040518060400160405280428152602001838152506000826040516101b19190610590565b90815260200160405180910390206000820151816000015560208201518160010190816101de91906107b3565b509050507f0d3bbc3c02da6ed436712ca1a0f626f1269df703a105f034e4637c7b10fb7ba5600142848460405161021894939291906108a0565b60405180910390a1610264565b7f0d3bbc3c02da6ed436712ca1a0f626f1269df703a105f034e4637c7b10fb7ba5600042848460405161025b94939291906108a0565b60405180910390a15b5050565b6000604051905090565b600080fd5b600080fd5b600080fd5b600080fd5b6000601f19601f8301169050919050565b7f4e487b7100000000000000000000000000000000000000000000000000000000600052604160045260246000fd5b6102cf82610286565b810181811067ffffffffffffffff821117156102ee576102ed610297565b5b80604052505050565b6000610301610268565b905061030d82826102c6565b919050565b600067ffffffffffffffff82111561032d5761032c610297565b5b61033682610286565b9050602081019050919050565b82818337600083830152505050565b600061036561036084610312565b6102f7565b90508281526020810184848401111561038157610380610281565b5b61038c848285610343565b509392505050565b600082601f8301126103a9576103a861027c565b5b81356103b9848260208601610352565b91505092915050565b6000602082840312156103d8576103d7610272565b5b600082013567ffffffffffffffff8111156103f6576103f5610277565b5b61040284828501610394565b91505092915050565b6000819050919050565b61041e8161040b565b82525050565b600081519050919050565b600082825260208201905092915050565b60005b8381101561045e578082015181840152602081019050610443565b8381111561046d576000848401525b50505050565b600061047e82610424565b610488818561042f565b9350610498818560208601610440565b6104a181610286565b840191505092915050565b60006040820190506104c16000830185610415565b81810360208301526104d38184610473565b90509392505050565b600080604083850312156104f3576104f2610272565b5b600083013567ffffffffffffffff81111561051157610510610277565b5b61051d85828601610394565b925050602083013567ffffffffffffffff81111561053e5761053d610277565b5b61054a85828601610394565b9150509250929050565b600081905092915050565b600061056a82610424565b6105748185610554565b9350610584818560208601610440565b80840191505092915050565b600061059c828461055f565b915081905092915050565b7f4e487b7100000000000000000000000000000000000000000000000000000000600052602260045260246000fd5b600060028204905060018216806105ee57607f821691505b602082108103610601576106006105a7565b5b50919050565b60008190508160005260206000209050919050565b60006020601f8301049050919050565b600082821b905092915050565b6000600883026106697fffffffffffffffffffffffffffffffffffffffffffffffffffffffffffffffff8261062c565b610673868361062c565b95508019841693508086168417925050509392505050565b6000819050919050565b60006106b06106ab6106a68461040b565b61068b565b61040b565b9050919050565b6000819050919050565b6106ca83610695565b6106de6106d6826106b7565b848454610639565b825550505050565b600090565b6106f36106e6565b6106fe8184846106c1565b505050565b5b81811015610722576107176000826106eb565b600181019050610704565b5050565b601f8211156107675761073881610607565b6107418461061c565b81016020851015610750578190505b61076461075c8561061c565b830182610703565b50505b505050565b600082821c905092915050565b600061078a6000198460080261076c565b1980831691505092915050565b60006107a38383610779565b9150826002028217905092915050565b6107bc82610424565b67ffffffffffffffff8111156107d5576107d4610297565b5b6107df82546105d6565b6107ea828285610726565b600060209050601f83116001811461081d576000841561080b578287015190505b6108158582610797565b86555061087d565b601f19841661082b86610607565b60005b828110156108535784890151825560018201915060208501945060208101905061082e565b86831015610870578489015161086c601f891682610779565b8355505b6001600288020188555050505b505050505050565b60008115159050919050565b61089a81610885565b82525050565b60006080820190506108b56000830187610891565b6108c26020830186610415565b81810360408301526108d48185610473565b905081810360608301526108e88184610473565b90509594505050505056fea2646970667358221220043a0f38bd76d25e06969f537a0a921f35ca5aca0afebb5148242644b099b1ce64736f6c634300080f0033",
  "immutableReferences": {},
  "source": "// SPDX-License-Identifier: MIT\npragma solidity < 0.9.0;\n\ncontract Proof {\n    struct FileDetail\n    {\n        uint256 timestamp;\n        string owner;\n    }\n\n    mapping (string => FileDetail) files;\n\n    event logFileAddedStatus(bool status, uint256 timestamp, string owner,\n    string fileHash);\n\n    //        \n    function set(string memory owner, string memory fileHash) public\n    {\n        //    ,\n        //    ,\n        //      (  )\n        if(files[fileHash].timestamp == 0)\n        {\n            files[fileHash] = FileDetail(block.timestamp, owner);\n            //  ,   -\n            //  ,   \n            //  \n            emit logFileAddedStatus(true, block.timestamp, owner, fileHash);\n        }\n        else\n        {\n            //   -,  \n            //   \n            //   ,    \n            //   \n            emit logFileAddedStatus(false, block.timestamp, owner, fileHash);\n\n        }\n    }\n\n    //     \n    function get(string memory fileHash) public view returns (uint256 timestamp, string memory owner) \n    {\n        return (files[fileHash].timestamp, files[fileHash].owner);\n    }\n}",
  "sourcePath": "/home/oxy/MyContracts/Proof/contracts/Proof.sol",
  "compiler": {
    "name": "solc",
    "version": "0.8.15+commit.e14f2714.Emscripten.clang"
  },
  "schemaVersion": "3.4.7",
  "updatedAt": "2022-07-19T18:43:10.922Z",
  "devdoc": {
    "kind": "dev",
    "methods": {},
    "version": 1
  },
  "userdoc": {
    "kind": "user",
    "methods": {},
    "version": 1
  }
}